S010000053686966743539352E7372656373
S11300000EC028C08FC026C025C024C023C022C073
S113001021C020C01FC01EC01DC01CC01BC0112495
S11300201FBECFE5D2E0DEBFCDBF11E0A0E6B0E059
S1130030E8E1F9E002C005900D92A030B107D9F7CC
S113004021E0A0E0B1E001C01D92A230B207E1F7C7
S11300508ED060C4D5CF87B38E6187BB38B328B345
S113006081E090E002C0880F991F3A95E2F7822B55
S113007088BB0895C49AC4980895C39A85E08A9564
S1130080F1F70000C39885E08A95F1F70000089520
S1130090CF93DF93D82FC8E0DD2314F4C19A01C0B5
S11300A0C198E8DFDD0FC150B9F7DF91CF91089512
S11300B02FEF82E597E0215080409040E1F700C0A7
S11300C00000089585E38A95F1F700000895FF92F2
S11300D00F931F93CF93DF93C82FD62F142FF22E95
S11300E0802FD6DF8F2DD4DF812FD2DF8D2FD0DF6D
S11300F08C2FCEDFC2DFDF91CF911F910F91FF9044
S11301000895E199FECF1FBA8EBB6DBBF894E29AB5
S1130110E19A78940895E199FECF1FBA8EBBE09AD4
S11301208DB308951F920F920FB60F9211248F93DF
S11301309F938FE99FE00197F1F700C00000B09909
S11301400FC085B78F7D85BF809101018F5F80933C
S113015001019DEF90930001893010F0109201018C
S11301609F918F910F900FBE0F901F90189573DF82
S1130170C09A87E0D0DF809301018A3010F010929A
S113018001018BB780628BBFA89A7894CAE0DFE044
S1130190E0910101E1115CC310920001F0E0EE0F67
S11301A0FF1FEE0FFF1FEE0FFF1FE055FF4FA08153
S11301B0C180D280E380F4801581B681E7812A2F43
S11301C03C2D4D2D5E2D6F2D712F8B2F9E2F00E218
S11301D06DD3A22E2A2F3C2D4D2D5E2D6F2D712F08
S11301E08B2F9E2F08E162D3B22E2A2F3C2D4D2D4A
S11301F05E2D6F2D712F8B2F9E2F00E157D3F22F81
S11302002A2F3C2D4D2D5E2D6F2D712F8B2F9E2F60
S113021008E04CD3622F0A2D2B2D4F2F8A2F57DF46
S11302202FEF82E597E0215080409040E1F700C035
S113023000002FEF82E597E0215080409040E1F7E5
S113024000C000002FEF82E597E0215080409040ED
S1130250E1F700C00000E0910001EF5FE0930001CE
S1130260EA3008F49BCFF4C2F0E0EE0FFF1FEE0F6C
S1130270FF1FEE0FFF1FE05AFF4FA081C180D28005
S1130280E380F4801581B681E7812A2F3C2D4D2D22
S11302905E2D6F2D712F8B2F9E2F00E207D3A22E80
S11302A02A2F3C2D4D2D5E2D6F2D712F8B2F9E2FC0
S11302B008E1FCD2B22E2A2F3C2D4D2D5E2D6F2D40
S11302C0712F8B2F9E2F00E1F1D2F22F2A2F3C2D7C
S11302D04D2D5E2D6F2D712F8B2F9E2F08E0E6D2B2
S11302E0622F0A2D2B2D4F2F8A2FF1DE2FEF82E55F
S11302F097E0215080409040E1F700C000002FEFCC
S113030082E597E0215080409040E1F700C0000072
S1130310E0910001EF5FE0930001EA3008F4A4CF1C
S1130320C0930001EC2F80910101813009F054C089
S1130330F0E0EE0FFF1FEE0FFF1FEE0FFF1FE85A56
S1130340FF4FA081C180D280E380F4801581B68103
S1130350E7812A2F3C2D4D2D5E2D6F2D712F8B2F74
S11303609E2F00E2A3D2A22E2A2F3C2D4D2D5E2DCE
S11303706F2D712F8B2F9E2F08E198D2B22E2A2F2A
S11303803C2D4D2D5E2D6F2D712F8B2F9E2F00E157
S11303908DD2F22F2A2F3C2D4D2D5E2D6F2D712FD6
S11303A08B2F9E2F08E082D2622F0A2D2B2D4F2FE8
S11303B08A2F8DDE2FEF82E597E021508040904018
S11303C0E1F700C000002FEF82E597E02150804064
S11303D09040E1F700C00000E0910001E150E0939B
S11303E00001E111A0CF80910101823009F039C2EE
S11303F01092000111E0912CA12CD12CE12CF12CB4
S1130400B12CC12C212F392D4A2D5D2D6E2D7F2D20
S11304108B2D9C2D00E24AD2A22F212F392D4A2D5B
S11304205D2D6E2D7F2D8B2D9C2D08E13FD2F22F5B
S1130430212F392D4A2D5D2D6E2D7F2D8B2D9C2D39
S113044000E134D2E22F212F392D4A2D5D2D6E2D5E
S11304507F2D8B2D9C2D08E029D2622F0A2F2F2F60
S11304604E2F812F34DE212F392D4A2D5D2D6E2DF7
S11304707F2D8B2D9C2D01E0FED1122F932EA42EC7
S1130480D52EE62EF72EB82EC92E2FEF82E597E053
S1130490215080409040E1F700C0000080910001AD
S11304A08F5F80930001863208F4ACCF8091010104
S11304B0833009F0BBC01092000110E0F12CE12C54
S11304C0D12CC12CB12CA12C912C212F3F2D4E2DA0
S11304D05D2D6C2D7B2D8A2D992D00E2E7D1A22F65
S11304E0212F3F2D4E2D5D2D6C2D7B2D8A2D992D89
S11304F008E1DCD1F22F212F3F2D4E2D5D2D6C2DE7
S11305007B2D8A2D992D00E1D1D1E22F212F3F2D72
S11305104E2D5D2D6C2D7B2D8A2D992D08E0C6D195
S1130520622F0A2F2F2F4E2F812FD1DD212F3F2D08
S11305304E2D5D2D6C2D7B2D8A2D992D01E09BD1A7
S1130540A1E0D0D1122FF32EE42ED52EC62EB72E35
S1130550A82E992E2FEF82E597E0215080409040FD
S1130560E1F700C00000809100018F5F80930001DB
S1130570873208F4AACF80910101833009F056C074
S113058010920001212F3F2D4E2D5D2D6C2D7B2DC2
S11305908A2D992D00E28AD1A22F212F3F2D4E2D95
S11305A05D2D6C2D7B2D8A2D992D08E17FD1F22FA5
S11305B0212F3F2D4E2D5D2D6C2D7B2D8A2D992DB8
S11305C000E174D1E22F212F3F2D4E2D5D2D6C2D96
S11305D07B2D8A2D992D08E069D1622F0A2F2F2FA8
S11305E04E2F812F74DD212F3F2D4E2D5D2D6C2D2F
S11305F07B2D8A2D992D01E03ED1122FF32EE42E6E
S1130600D52EC62EB72EA82E992E2FEF82E597E071
S1130610215080409040E1F700C00000809100012B
S11306208F5F80930001873208F4ACCF8091010181
S1130630843009F01AC1FD2EB12CC12CD12C10E04C
S1130640E12C912CA12C2F2D3B2D4C2D5D2D612FB8
S11306507E2D892D9A2D00E229D1A22F2F2D3B2DFD
S11306604C2D5D2D612F7E2D892D9A2D08E11ED1F3
S1130670F22F2F2D3B2D4C2D5D2D612F7E2D892D9D
S11306809A2D00E113D1E22F2F2D3B2D4C2D5D2D02
S1130690612F7E2D892D9A2D08E008D1622F0A2F13
S11306A02F2F4E2F8F2D13DD20E030E040E050E05F
S11306B0612F607270E080E090E0A0E01FD1A9F0AB
S11306C02F2D3B2D4C2D5D2D612F7E2D892D9A2DA7
S11306D001E0D1D0A1E006D1F22EB32EC42ED52E46
S11306E0162FE72E982EA92E12C02F2D3B2D4C2D00
S11306F05D2D612F7E2D892D9A2D01E0BCD0F22E27
S1130700B32EC42ED52E162FE72E982EA92E2FEFFA
S113071082E597E0215080409040E1F700C000005E
S113072080910101843009F48ECF853009F054C0E2
S113073010E0912CC12CD12CE12CF12CA12CB12C4A
S1130740212F392D4C2D5D2D6E2D7F2D8A2D9B2D26
S113075000E2ACD0A22F212F392D4C2D5D2D6E2D12
S11307607F2D8A2D9B2D08E1A1D0F22F212F392D29
S11307704C2D5D2D6E2D7F2D8A2D9B2D00E196D065
S1130780E22F212F392D4C2D5D2D6E2D7F2D8A2D9D
S11307909B2D08E08BD0622F0A2F2F2F4E2F812FF5
S11307A096DC25E32A95F1F70000212F392D4C2DF5
S11307B05D2D6E2D7F2D8A2D9B2DA1E093D0122FC0
S11307C0932EC42ED52EE62EF72EA82EB92E809168
S11307D00101853009F4B4CF80910101863079F4A8
S11307E00FEF2FEF4FEF6FEF8FEF71DC8FEF93ED84
S11307F020E3815090402040E1F700C00000809148
S11308000101873061F41092010100E020E040E032
S113081060E080E05CDC85B7806285BF889580916C
S11308200101883009F0B4CC0FEF2FEF4FEF6FEFD9
S11308308FEF4DDC8FEF93ED20E38150904020400B
S1130840E1F700C00000A4CC10920001E0E00CCD60
S113085080910101813009F0C6CDF6CF10920001DC
S11308602CCE833009F0E2CEF9CF8091010185309E
S113087009F0B2CF5DCF0F93083090F0982F872FF7
S1130880762F652F542F432F322F22270850F4CF71
S1130890220F331F441F551F661F771F881F991F80
S11308A00A95B2F70F91089597FB10F81694000873
S11308B00F93083098F00850232F342F452F562FCC
S11308C0672F782F892F902DF4CF059497958795CE
S11308D07795679557954795379527950A95AAF77C
S11308E00F9108950024A7FD00942A0F301D401D88
S11308F0501D601D701D801D901D08950024A7FDCE
S113090000942A17300540055005600570058005E0
S10B091090050895F894FFCF4F
S113091800008007000000000000E01F0000000045
S11309280000F03F000000000000F87F0000000015
S11309380000FCFF000000000000FEFF01000000B2
S11309480118FFFF2300000003FCFFFF3F00000025
S113095807FEFFFF3F000000FFFFFFFF3F0000000E
S1130968000080070000000000006018000000007C
S113097800001020000000000000084000000000F3
S113098800000480000000000000020001000000D4
S1130998011801002200000002E400001C0000000D
S11309A80402000000000000F8010000000000003C
S9030000FC
